:03000000020A7C75
:0C0A7C00787FE4F6D8FD758117020800B1
:1009980050415353574F52442050524F544543549B
:1009A800494F4E0053595354454D00454E544552F6
:1009B8002050415353574F52440050415353574FBF
:1009C8005244204D415443484544005041535357E5
:0A09D8004F52442057524F4E470083
:100800007F38120A607F01120A607F10120A607F2F
:100810000C120A607F80120A607BFF7A0979987D4A
:10082000131209E27FC0120A607BFF7A0979AC7D5E
:10083000071209E27F01120A607BFF7A0979B37D12
:100840000E1209E27FC0120A60C28020840A120AD6
:100850003C7F2A120A6E051220851174082512F8B1
:100860007632120A437F2A120A6E0512208611740C
:10087000082512F87633120A437F2A120A6E0512EF
:10088000C281D28020841174082512F87634120AAD
:10089000437F2A120A6E051220851174082512F86A
:1008A0007635120A437F2A120A6E051220861174C9
:1008B000082512F87636120A437F2A120A6E0512AC
:1008C000C282D28120841174082512F87637120A68
:1008D000437F2A120A6E051220851174082512F82A
:1008E0007638120A437F2A120A6E05122086117486
:1008F000082512F87639120A437F2A120A6E051269
:10090000C283D28220841174082512F8762A120A32
:10091000437F2A120A6E051220850A120A3C7F2A9A
:10092000120A6E0512208609120936120A43120AAB
:0609300043D283020834EB
:10093600E5086437704BE50964327045E50A6438AA
:10094600703FE50B64377039E50C64307033E50DA4
:100956006431702DE50E64357027E50F6432702121
:10096600E510B4311CE511B43717D2B3C2B47F0118
:10097600120A607BFF7A0979C27D101209E2020A27
:10098600437F01120A607BFF7A0979D37D0E120933
:02099600E2225B
:0E0A60008FA0C2B0C2B1D2B6120A43C2B622F3
:0E0A6E008FA0D2B0C2B1D2B6120A43C2B622D5
:0809E2008B138A1489158D1690
:1009EA00E4F517E517C39516501AAB13AA14A915FF
:1009FA00851782758300120A0FFF120A6E120A43C4
:040A0A00051780DF6D
:010A0E0022C5
:070A3C0074082512F8763062
:100A4300E4FFFE0FBF00010EBE0FF8BFA0F5E4FFE9
:0C0A5300FE0FBF00010EEF64644E70F552
:010A5F002274
:100A0F00BB010CE58229F582E5833AF583E022509C
:100A1F0006E92582F8E622BBFE06E92582F8E222E6
:0D0A2F00E58229F582E5833AF583E4932200
:00000001FF
